:100000000C9461000C947E000C947E000C947E0095
:100010000C947E000C947E000C947E000C947E0068
:100020000C947E000C947E000C947E000C947E0058
:100030000C947E000C947E000C947E000C947E0048
:100040000C94E7010C947E000C947E000C947E00CE
:100050000C947E000C947E000C947E000C947E0028
:100060000C947E000C947E00000000002400270009
:100070002A0000000000250028002B0000000000DE
:1000800023002600290004040404040404040202DA
:100090000202020203030303030301020408102007
:1000A0004080010204081020010204081020000012
:1000B0000008000201000003040700000000000027
:1000C000000011241FBECFEFD8E0DEBFCDBF11E08E
:1000D000A0E0B1E0EAEDF5E002C005900D92A03697
:1000E000B107D9F721E0A0E6B1E001C01D92A13728
:1000F000B207E1F70E9431020C94EB020C9400006D
:10010000833081F028F4813099F08230A9F008958D
:100110008730A9F08830C9F08430B1F48091800034
:100120008F7D03C0809180008F7780938000089539
:1001300084B58F7784BD089584B58F7DFBCF809182
:10014000B0008F778093B00008958091B0008F7DCC
:10015000F9CFCF93DF93282F30E0F901E255FF4F1D
:100160008491F901E656FF4FD491F901EA57FF4F08
:10017000C491CC23A1F081110E948000EC2FF0E00B
:10018000EE0FFF1FE458FF4FA591B491EC91ED23C2
:1001900081E090E009F480E0DF91CF91089580E064
:1001A00090E0FACF1F93CF93DF93282F30E0F9012F
:1001B000E255FF4F8491F901E656FF4FD491F901C2
:1001C000EA57FF4FC491CC23A9F0162F81110E944A
:1001D0008000EC2FF0E0EE0FFF1FEE58FF4FA591CF
:1001E000B4918FB7F894EC91111108C0D095DE232B
:1001F000DC938FBFDF91CF911F910895DE2BF8CF55
:10020000CF93DF9390E0FC01E656FF4F24918A578D
:100210009F4FFC0184918823D1F090E0880F991FB3
:10022000FC01E859FF4FA591B491FC01EE58FF4F36
:10023000C591D49161110EC09FB7F8948C91E22FB3
:10024000E0958E238C932881E223E8839FBFDF9182
:10025000CF9108958FB7F894EC91E22BEC938FBF78
:10026000F6CF3FB7F8948091690190916A01A0910F
:100270006B01B0916C0126B5A89B05C02F3F19F00A
:100280000196A11DB11D3FBFBA2FA92F982F882716
:10029000BC01CD01620F711D811D911D42E0660FF1
:1002A000771F881F991F4A95D1F708958F929F92C3
:1002B000AF92BF92CF92DF92EF92FF920F931F9374
:1002C000CF93DF9310926101109260018A30910503
:1002D0000CF070C09093630180936201C091620141
:1002E000D0916301009160011091610183E0000FE2
:1002F000111F8A95E1F700501F4FF801608182E0DD
:100300000E94D200F801628183E00E94D200F801CD
:10031000648184E00E94D200F801668185E00E9439
:10032000D20093E0CC0FDD1F9A95E1F7C050DF4F6C
:10033000688186E00E94D2006A8187E00E94D20034
:100340006C8188E00E94D2006E8189E00E94D20018
:100350000E9431014B015C0120E9C22EDD24D394BF
:10036000E12CF12C0E943101681979098A099B0955
:10037000683E734081059105A8F3F1E0CF1AD108DA
:10038000E108F10828EE820E23E0921EA11CB11CA8
:10039000C114D104E104F10429F7DF91CF911F9139
:1003A0000F91FF90EF90DF90CF90BF90AF909F9014
:1003B0008F9008956AE070E00E94C30290936301F9
:1003C00080936201709361016093600187CF1F92F7
:1003D0000F920FB60F9211242F933F938F939F93F9
:1003E000AF93BF938091650190916601A0916701E1
:1003F000B09168013091640123E0230F2D3758F547
:100400000196A11DB11D2093640180936501909315
:100410006601A0936701B093680180916901909192
:100420006A01A0916B01B0916C010196A11DB11DF3
:100430008093690190936A01A0936B01B0936C0162
:10044000BF91AF919F918F913F912F910F900FBED0
:100450000F901F90189526E8230F0296A11DB11D3D
:10046000D2CF789484B5826084BD84B5816084BD28
:1004700085B5826085BD85B5816085BD80916E0042
:10048000816080936E001092810080918100826073
:1004900080938100809181008160809381008091B0
:1004A00080008160809380008091B100846080939F
:1004B000B1008091B00081608093B00080917A009B
:1004C000846080937A0080917A00826080937A00C1
:1004D00080917A00816080937A0080917A008068B0
:1004E00080937A001092C10060E08AE00E940001CF
:1004F00060E08BE00E940001C8E5D1E000E511E07A
:1005000080E6E82E81E0F82E8881229661E00E9444
:100510000001F80180810E5F1F4F61E00E94000121
:10052000EC16FD0689F7C0E0D0E08AE00E94A90041
:100530008C019093700180936F018BE00E94A90061
:1005400001301105A1F480916D0190916E01019629
:1005500090936E0180936D011092700110926F0163
:100560000E945601209709F30E940000DECF0197F8
:10057000C9F780916D0190916E01019790936E0182
:1005800080936D01EDCF97FB072E16F4009407D0F2
:1005900077FD09D00E94D70207FC05D03EF4909564
:1005A00081959F4F0895709561957F4F0895AA1B7F
:1005B000BB1B51E107C0AA1FBB1FA617B70710F04E
:1005C000A61BB70B881F991F5A95A9F78095909580
:0A05D000BC01CD010895F894FFCF9F
:1005DA000000000000000000000000000000010010
:1005EA0000000000010000000000000001000100FE
:1005FA0000000100000000000000010000000100EE
:10060A0000000100010000000000010001000100DB
:10061A0001000000000000000100000000000100CD
:10062A000600070008000900020003000400050094
:00000001FF
